:020000040800F2
:20000000A00F0020D5000008ED160008F70C0008000000000000000000000000000000001E
:20002000000000000000000000000000C51A0008000000000000000041170008791C0008DC
:20004000E7000008E7000008E7000008E7000008E7000008E7000008E5040008790500088F
:20006000E7000008E7000008E7000008E7000008E7000008E7000008E7000008351D00089D
:20008000E7000008E700000800000000E7000008E7000008E7000008E7000008E7000008D7
:2000A000E7000008E7000008E7000008E7000008E700000800000000E700000800000000A6
:2000C0000348854600F0CAF800480047E51F0008A00F00200448804704480047FEE7FEE77E
:2000E000FEE7FEE7FEE7FEE77D1C0008C100000830B50B46014600202022012409E00D46C2
:20010000D5409D4205D31D469540491B2546954040191546521E002DF1DC30BD70B50024E3
:200120002546002801DA01244042002901DA01254942FFF7DDFFAC4200D04042002C00D0E7
:20014000494270BD0321001D401E037812021A43491EF9D5104670470EB505490291002155
:2001600000910A460B46019100F025F803B000BD3304000010B5002904DB0124E4074042A8
:200180008C412146002B04DB1C460123DB075242A3418B4200D1824210BD000010B5002B22
:2001A00008DA0024401C614192185B411A4301D14008400010BDF0B51FB482B005460C0070
:2001C00003D0084601F0D0FE02E001F0CDFE2030024600902146284600F052F8049B059A2C
:2001E00004460F4618431143084314D0184610431BD0009840210A1A1846059900F050F895
:2002000005460E46009A0599049800F039F8084305D0012004E02046394607B0F0BD0020BC
:20022000C11705430E432C43374300990E986305401A7905E40A00220C43FD0A0A3002D56E
:2002400000200146E9E70105101969410C9C0D9D00196941FFF7A2FFDFE70000064C0125A4
:20026000064E05E0E36807CC2B430C3C98471034B442F7D3FFF728FFE064000800650008B8
:2002800010B5202A04DB0146203A9140002010BD914020239C1A0346E3401943904010BDE2
:2002A00010B5202A04DB0846203AD040002110BD0B46D340D0402024A21A914008431946BB
:2002C00010BD000010B5074C0020E378A46A0146034A634301E01154401C8342FBD810BD6F
:2002E000990100208000002030B5144B5C69001BDC69091B00281FDB5C6AA0421CD8002930
:200300001ADB9C6AA14217D8DB7801255943C3175B0F1B18DC100919094C002A625C05D064
:20032000DB08DB00C01A85402A4304E0DB08DB00C01A8540AA43625430BD00008000002082
:2003400099010020F8B5471C4E1C951C9C1C2A2001F090F93804000E01F082F9F8B201F0EB
:200360007FF93004000E01F07BF9F0B201F078F92B2001F07FF92804000E01F071F9E8B277
:2003800001F06EF92004000E01F06AF9E0B201F067F92C2001F06EF9F8BD0000034B02E013
:2003A0001946491EFDD2401EFAD27047150A000010B504484169C160C1690161024800F006
:2003C00051FA10BD800000209901002030B50B4B09490020996001215970094C094D99686E
:2003E00004C9DA6099602254401CC0B20D2801D8A942F4D330BD0000007600086C00002002
:20040000C400002000800008F8B5002400F05CF9342000F0F5F8174D022028610020164E96
:2004200068600DE068688002801900F0EFF8042800D0FEE76868401C68602969884202D240
:2004400028780428EED0AE600C4E0D4F315DA86800F014F9042800D0FEE7A868641C001D25
:20046000E4B2A8600D2C01D8B842EFD300F0FEF8F8BD00006C00002000760008C400002087
:20048000008000087CB50121480401F05BF90124E402012069460094087100208871C871B6
:2004A000032009254871ED06284600F087F90A48048100F021FC0A20FFF770FFAC61074E8C
:2004C000074D0024315D2955204601F041FD641CE4B2212CF6D37CBD20000048BF6400080B
:2004E000D1000020F8B51F4800211F4A0170506A51621E4A012683181D4AC72B01D81670AD
:200500002AE01B4C07462578A36864785B3F641C5B00E4B2272F0FD2002D15D0936054708E
:200520001F2C19D9117051701248190C814213D1180A9070D6700FE00746C93F272F05D23D
:20054000002D01D03343E9E7517005E0074BFA33C018F92804D81671042000F015F8F8BD00
:200560001170F1E76A000020000400401DFBFFFFB8000020E177000010B5C02000F004F87D
:2005800000F010FF10BD000001494861704700000004014010B5837918490268002B26D0F3
:2005A0000B6893430B604A6803689A434A600279521813680468234313608A6803689A4304
:2005C0008A60CA6803689A43CA604279102A05D051180A68006802430A6010BD8A680368A7
:2005E0001A438A60CA6800680243CA6010BD0079401801689143016010BD0000000401405D
:200600000149C8607047000000200240F0B50B2706463F04384600F067F804280FD1084CBC
:20062000206902252843206166612069402108432061384600F058F82169A9432161F0BD3E
:200640000020024008490420CA68D20701D001207047CA68D20601D502207047C9684907D5
:20066000FBD50320704700000020024002480169802211430161704700200240F8B5064650
:2006800000200B273F0400900D46384600F02CF8042815D10B4C20690121084320613580BB
:2006A000384600F021F8042806D1B61C290C00963180384600F018F821694908490021613E
:2006C000F8BD00000020024004480169090603D50349416003494160704700000020024073
:2006E00023016745AB89EFCD00B50346FFF7AAFF02E0FFF7A7FF5B1E012803D0002B00D1AE
:20070000052000BD002BF4D1FAE70000FFB584B0C80800904807400F0190274841688068AF
:20072000814201D1002000E0012002900198002802D00098401C0090002638E0002531E0E6
:2007400000980D9968438919475C0198002805D00098401E864201D1019800E00820002480
:2007600003901AE0F80708D00798F100081801190698114A401952680AE00298002809D0BA
:200780000798F1000818011906980B4A4019926800F0CCF97F08641CE4B203988442E1D3E2
:2007A0006D1CEDB204988542CAD3761CF6B200988642C3D308B0F0BD80000020F0B5002215
:2007C000032501230C6893401C409C422AD10C79012C01D0022C12D1876854002E46A64020
:2007E000B74387604E79A64084682643866084889C43848084888B7993401C43848006688D
:2008000053002C469C40A64306600E7907689E403E430660C668A643C660CC799C40C368A4
:200820001C43C460521C102ACBD3F0BD4B07DB0E9A40C90810B589000818016A0F249C4074
:20084000A1430162016A1143016210BD0246128A00200A4200D0012070470185704781614B
:2008600070470000F8B50546164800260368164834460268154801681548006800F0E8FE37
:20088000002716E02878E040C00701D0114800E01148006800F0F8FE0C48641C0068761C35
:2008A000864201D3002601E0082C01D300246D1C7F1C06480349006809684843B842E1D894
:2008C000F8BD0000A800002090000020A40000208C000020840000208800002070B50C46B8
:2008E000064615E021460A2001F071FB0546601CC1B20A2001F06BFB01463046FFF7F8FB68
:2009000008462946FFF7F4FBC0B2303000F080F82046641EE4B20028E4D170BDF8B5374C43
:20092000002123780A46002B06D0012B18D0022B2DD0032B56D13FE0314E05781B234B4330
:200940009B191F7EAF4205D15B7E4778BB4201D10A4603E0491CC9B24429EFD31B2013E0A8
:20096000284E057823234B439B1920331F78AF4205D15B784778BB4201D10A4603E0491C52
:20098000C9B20F29EED32320424390192AE01E4E05784B234B439B1940331F7AAF4205D1FC
:2009A0005B7A4778BB4201D10A4603E0491CC9B20529EED34B20E7E70678144D83234B4386
:2009C0005B1980331F78B74205D15B784778BB4201D10A4603E0491CC9B21C29EED383206D
:2009E000424350190090A17860782369E268FFF78DFE6178E0684018E060F8BD8000002023
:200A0000ED2F0008303A00082C530008EA3E000878B53E4C002125780A462B0001F0BBFAF3
:200A20000604132234445467394D0E234B435B191B7B834201D10A4603E0491CC9B25129D1
:200A4000F3D30E201DE0334B12254D43ED182D7C854201D10A4603E0491CC9B22D29F3D3EA
:200A6000122042E02C4D26234B435B1920331B79834201D10A4603E0491CC9B22229F2D3BD
:200A800026204243501932E0244D42234B435B1940331B78834201D10A4603E0491CC9B288
:200AA0001729F2D34220ECE71D4D52234B435B1940331B7C834201D10A4603E0491CC9B267
:200AC0001829F2D35220DCE7164B0725ED01164E4E43F61876193679864201D10A4603E052
:200AE000491C0906090EF2D00F484243D01800906078A17840082369E268FFF707FE607873
:200B0000E16840084018E06078BD0000800000205C3600081A3C0008A35400083E4D00084D
:200B200089590008396100088603000000B5054B9B689A4201D0012200E00022FFF7D4FB01
:200B400000BD00008000002000B50D4920220870030001F020FA060406080A0D110C0C20ED
:200B60000BE0102009E0182007E04A708A7000BD8A702820487000BD78204870887000BD25
:200B80008000002030B50A4C8518A561E1616061CD182562A36262622161E0605005000E7A
:200BA000E070510701D0401CE070FFF78BFB30BD80000020F0B5D40FA4186610851B0C4C55
:200BC00036186561DD0FED186D104F1BE7616D18A6612562A36262622161E0605005000EE0
:200BE000E070510701D0401CE070FFF76BFBF0BD8000002030B504461A4D2EE0A0281CD2CD
:200C00006878A9694008081AE968884205D26869E860A97828694018286120780D2805D038
:200C20000A2803D0FFF7F4FE641C16E06869E860A978286940182861F6E76978A869401A7C
:200C4000E968884205D26869E860A9782869401828612046FFF762FEA41C20780028CDD11C
:200C600030BD00008000002030B5002102E0491CC9B2401C0278002AF9D10B4A401A9469A9
:200C80005369156A1B19D4695B086419957864086D08641B146154784C43A108591AD1603E
:200CA000FFF7A8FF30BD0000800000207CB50121480400F047FD0924E406208A0009C007A6
:200CC00018D0208AC008C00714D0208A4009C00710D0E513012069460095087100228A7182
:200CE000CA71032048712046FFF768FD29462046FFF7B5FD7CBDFEE770B501218AB04804B4
:200D000000F020FD03204002009002206946087101258D710024CC71032009264871F606FB
:200D20003046FFF74BFD042209213046FFF77EFD04220A213046FFF779FD102000F026FD52
:200D40000121480500F00AFD089405940394069407940748074C029002A90495204600F05E
:200D600001F90121204600F0EBF80AB070BD0000442EE33000540040FFB501273F03354D7E
:200D800081B0FC00344E2F6004E02868401E2860401C5DD02146304600F0DCF80028F4D1A4
:200DA000012040030090002301223046019900F011F92F6004E02968491E2960491C47D07F
:200DC0000221304600F0C6F80028F4D03046029900F0FDF82F6004E02968491E2960491C91
:200DE00036D04021304600F0B5F80028F4D009208002012300905B063046039A019900F030
:200E0000E9F8002411E02868401E2860401C1FD00421304600F09EF80028F4D0304600F0A8
:200E2000D3F804990855641CE4B203982F608442EED304E02968491E2960491C08D0202143
:200E4000304600F087F80028F4D0002005B0F0BD0120FBE7AC00002000540040FFB5012700
:200E60003F03354D81B0FC00344E2F6004E02868401E2860401C5CD02146304600F06AF85F
:200E80000028F4D101204003C302009001223046019900F09FF82F6004E02968491E2960FE
:200EA000491C46D00221304600F054F80028F4D03046029900F08BF82F6004E02968491E07
:200EC0002960491C35D08021304600F043F80028F4D00020012300905B063046039A01990F
:200EE00000F078F8002411E02868401E2860401C1FD00221304600F02DF80028F4D0049886
:200F0000015D304600F063F8641CE4B203982F608442EED304E02968491E2960491C08D049
:200F20002021304600F016F80028F4D0002005B0F0BD0120FBE70000AC000020005400402B
:200F40000029016802D00122114301E049084900016070470246926900200A4200D0012083
:200F60007047000010B502685208520002600268134B8C681A4024024B681443234303606E
:200F80000F230A681B069A430261026801231A43026000228260C2600B698A691A43826033
:200FA00082680123DB031A438260CA680368134303604268034B49691A401143416010BDEA
:200FC000FFE0CF00FF7FFF07406AC0B2704781627047000070B5049D44688905890D1204C6
:200FE000034E11431943344029432143416070BD009800FC70B5012000F09CFF154D68703F
:201000000B2000F097FFE8720F2000F093FFE873102000F08FFF2874072000F08BFFE87175
:20102000402000F087FF294640310870002420464230C0B200F07EFF29194031641CE4B2DE
:201040008870042CF3D3602000F074FF01496031087070BDD1000020F8B52A4F2A4EB87880
:201060007178884205D0022801D1FFF70BFAB8787070B878002804D0012804D0022807D1B6
:2010800004E0302500E04025012401E00025CC241E48C07AA84203D029460B2000F058FF79
:2010A0001A4D6878A04203D02146012000F050FF78787824E97B201A4000814203D0C1B2FA
:2010C0000F2000F045FF7878297C201A4000814203D0C1B2102000F03BFFF878042800D9C6
:2010E000401C30700A4940070978000EC907C90F01433170E879884202D0072000F028FF03
:20110000F8BD0000C4000020B3000020D10000201800002070B5012188B0084600F02AFB58
:201120000121480400F00EFB0121022000F016FB04260024694604960C7501254D75CD75C1
:20114000092004A9C006FFF739FB0221002000F0BBFC0420FFF718FA694606960C770C20B9
:2011600048778D7706A8FFF715FA0620694608704C708D70684600F0BBFA0121022000F06C
:20118000EDFA0F48029010480E490068FEF7B0FF6946401E88808C810C4ECC8001A93046DC
:2011A00000F06AFE0121304600F044FE1020694608704C708D70684600F09AFA08B070BDE6
:2011C000FFFF0000A08601000000002000040040F0B53748374BC178374C384D384E0029F0
:2011E00057D00021C1708078D02803D00022502806D000E0012200273A4303D01970F0BD93
:201200000127F9E7B02803D00022302806D000E0012200231A4303D02170F0BD0123F9E733
:20122000102803D00022902806D000E0012200231A4303D02970F0BD0123F9E7E02803D078
:201240000022602806D000E0012200231A4303D03170F0BD0123F9E7402803D00022C02821
:2012600006D000E0012200231A4303D015480CE00123F9E7202803D00022A02807D000E039
:20128000012200200243E4D00F480170F0BD0120F8E70E4800786428F8D10B49012008708D
:2012A000084908703070287020701870F0BD0000B800002064000020650000206600002001
:2012C0006700002068000020690000206A000020F0B5012185B0084600F04CFA0320012127
:2012E000400400F02FFA3820009000266846067101248471C471032141710927FF06694655
:201300003846FFF75BFA08213846FFF7A8FA10213846FFF7A4FA20213846FFF7A0FA1F4DC7
:20132000694628460094FFF749FA01212846FFF796FAC025694638460095FFF73FFA402176
:201340003846FFF78CFA80213846FFF788FA0721002000F0B9FBC020FFF716F968460295E6
:20136000067310214173847302A8FFF713F90721684601744474847404A800F0B9F9802182
:201380003846FFF763FA440040213846FFF75EFA04430348047005B0F0BD00000004004857
:2013A000B000002070B50926F60680213046FFF74DFA440040213046FFF748FA2B4D0443A7
:2013C0002878844250D080213046FFF73FFA440040213046FFF73AFA0443254A254B0021B5
:2013E000002C16D0012C1AD0022C0CD0032C1FD12878012802D0022816D019E0A878401C7B
:20140000A87069701CE028780328F7D000280BD00EE028780228F1D0012805D008E028784B
:201420000028EBD0032803D16878401C6870A9706878042804D31078401C1070197006E0E7
:20144000A878042805D31878401C18701170A970697080213046FFF7F9F944004021304667
:20146000FFF7F4F904432C7070BD0000B00000201E0000201D00002070B50920C006018A8F
:201480000909C9072DD03549098AC90729D0018A4909C90727D0008AC008C00725D0304869
:2014A0000078002823D02F480078002821D02E48007800281FD02D48007800281DD02C4816
:2014C000007800281BD02B480078002819D00020294A00211478294B844214D0107019701E
:2014E00070BD0120F4E70220F2E70320F0E70420EEE70520ECE70620EAE70720E8E70820C8
:20150000E6E70920E4E71A78022AE9D91C4B1D4C1D4D1E4A00281AD02870157801268542C3
:201520001AD010701A481E7001701A481D4A017019480170194801601948817951431A4ABF
:201540001160007A194948431949086070BD297019702170117070BD267070BD000400484C
:20156000690000206800002064000020650000206700002066000020590000205A00002051
:201580001A0000201B000020190000205C0000201C000020580000205B000020540000207E
:2015A000C4000020E02E00004C000020407E050050000020FEB50121880400F0C3F8F82076
:2015C000009001206946087100248C71CC710320164E48713046FFF7F1F8144F4020203725
:2015E000388100F0E9F880253D810120FEF7D6FEB5610120FEF7D2FE00F084F90C480E4900
:2016000004600C480460A02008600C480D4905600B4808600C4804600C48FFF723F964201A
:20162000FEF7BCFE4020B061FEBD000000040048900000208C000020A4000020A80000209B
:20164000FFFF00008400002088000020ED25000810B5D3184118491E5B1EFEF773FE10BD0A
:2016600010B5034A1021916100F020F910BD00000004004810B5034A1021118100F016F93F
:2016800010BD00002004004810B504460549102088612004000E00F009F9E0B200F006F9F6
:2016A00010BD000000040048F8B50402000A01260443002536030927FF0631463846FFF768
:2016C000CCF8E0070849384602D0FFF7C6F801E0FFF7C5F831463846FFF7C1F86D1C6408DD
:2016E000EDB2102DE9D3F8BD008000007047000030B5827801240178002A15D08B080E4AEF
:201700009B009A1813688907C90EFF258D40AB434578AD072D0E8D401D4315600078C0062F
:20172000C00E8440054804E0C806C00E844003488030046030BD000000E400E000E100E0B5
:2017400070470000044A0029516901D0014300E0814351617047000000100240044A0029B6
:20176000D16901D0014300E08143D1617047000000100240044A0029916901D0014300E0D5
:2017800081439161704700000010024004490A6B10239A430A630A6B02430A63704700006D
:2017A0000010024040220029018801D0114300E09143018070470000F0B5012187B0880428
:2017C000FFF7C0FF01210803FFF7D4FF28200590022668460676002484760125C57603218C
:2017E0004176174F05A93846FEF7E8FF28213846FFF735F8002203213846FFF717F80022EF
:2018000005213846FFF712F86846FF21048005314180072109028180C680058169024181AE
:201820008481C48107210182064C6946204600F013F801212046FFF7B5FF07B0F0BD0000BB
:2018400000040048003001400246128900200A4200D001207047000030B50388C1229201EE
:2018600013400A88CC890D892243CC882C4322434C8922438C8922431A4302808288094B1A
:201880001A408B88134383800A8A02820288042349889A4311430180818B034A1140818388
:2018A00030BD0000FFF00000FFF7000070B506460024114D03E0641CE4B2C82C0FD802216C
:2018C0002846FFF7C1FF0028F5D03146284600F017F8002405E0641CE4B2C82C01D9002006
:2018E00070BD01212846FFF7AFFF0028F3D0284600F004F870BD000000300140007B704772
:201900000173704710B51120FFF7B4FEB120FFF7B1FE0520FFF7A4FE3C20FFF7A1FE3C207E
:20192000FFF79EFEB220FFF7A5FE0520FFF798FE3C20FFF795FE3C20FFF792FEB320FFF769
:2019400099FE0520FFF78CFE3C20FFF789FE3C20FFF786FE0520FFF783FE3C20FFF780FE30
:201960003C20FFF77DFEB420FFF784FE0320FFF777FEC020FFF77EFEE020FFF771FE0020E9
:20198000FFF76EFE0720FFF76BFEC120FFF772FEC820FFF765FEC220FFF76CFE0D20FFF772
:2019A0005FFE0020FFF75CFEC320FFF763FE8D20FFF756FE2A20FFF753FEC420FFF75AFE66
:2019C0008D20FFF74DFEEE20FFF74AFEC520FFF751FE1A20FFF744FE3620FFF74BFEA020DC
:2019E000FFF73EFEE020FFF745FE0420FFF738FE3F20FFF735FE0720FFF732FE0A20FFF737
:201A00002FFE2E20FFF72CFE3020FFF729FE2520FFF726FE2A20FFF723FE2820FFF720FEA2
:201A20002620FFF71DFE2E20FFF71AFE3A20FFF717FE0020FFF714FE0120FFF711FE03201D
:201A4000FFF70EFE1320FFF70BFEE120FFF712FE0420FFF705FE3F20FFF702FE0620FFF7BD
:201A6000FFFD0D20FFF7FCFD2D20FFF7F9FD2620FFF7F6FD2320FFF7F3FD2720FFF7F0FD93
:201A80002720FFF7EDFD2520FFF7EAFD2D20FFF7E7FD3B20FFF7E4FD0020FFF7E1FD01208F
:201AA000FFF7DEFD0420FFF7DBFD1320FFF7D8FD3A20FFF7DFFD0520FFF7D2FD2920FFF710
:201AC000D9FD10BD704700008A0710B5120F0F2393408C080549A40061188C689C438C6072
:201AE0008B68904003438B6010BD00000000014010B50C48AA2101700821417000218170A3
:201B000001728171C1710222C270032303714371427281725A21C17201210173FEF774FC3A
:201B200010BD0000C400002030B5002127480A460161C160142343618161C161036801253C
:201B40002B4303604368224C234043600368214C234003600368AC04A343036043687F2445
:201B60002404A3434360826003682B43036003689B07FCD5426043680124640523434360D4
:201B80004368A41023434360036864012343036003685B0EFCD0436802242343436002E0E8
:201BA00041680907890F0229FAD1416901239B051943416109480849016082808260C26069
:201BC000816903221143816130BD0000001002400000FFF8FFFFF6FE5555555500140048E8
:201BE0001CB500232248009301930168012212041143016051000524240302680A40019221
:201C0000009A521C0092019A002A02D1009AA242F3D10168890328D501210191154A112119
:201C20001160416841604168416041683F22120491434160416811221204114341600168BA
:201C4000012212061143016001688901FCD541688908890041604168022211434160416801
:201C60000907890F0229FAD11CBD01931CBD000000100240002002407047000010B51448F4
:201C800001680122114301604168124A114041600168114A114001600168012292049143A0
:201CA000016041683F22120491434160C16A09090901C162016BFF22543291430163416BCD
:201CC00049084900416300218160FFF789FF10BD001002400CB8FFF8FFFFF6FE1FB5012184
:201CE0000846FFF73BFD0F2069460873022048730120887303A8FFF7FBFC7D20C000019090
:201D00002F20694608800020088101244880A407204600F0B1F80121204600F085F80122E5
:201D20001146204600F09CF80121204600F082F81FBD000010B501218C07204600F084F848
:201D4000002855D00121204600F071F8294C0A212078401CFEF7CCF92170002905D0012255
:201D6000012907D002293DD121E0FFF731FAFFF783FB37E020490878C82801D2401C0870FC
:201D80001E48007800280ED01D490878322802D2401C087007E02F2008701A481A49027092
:201DA0000868401C086019490868401C19E018490868002804D0401E086001D11548027094
:201DC00015490868002801D0401E086013490868002801D0401E086011490868002801D028
:201DE000401E08600F490878642801D2401C087010BD00006B0000205A0000201B00002005
:201E00005B0000201C00002060000020540000203400002015000020380000203C000020DA
:201E2000300000206A000020C94301827047C943018270470029018802D00122114301E060
:201E400049084900018070470246138A002092890B400A40002B02D0002A00D0012070472C
:201E6000002A828901D00A4300E08A438281704710B5FFF733FF10BD10B50288144B984266
:201E800006D00124A407A04202D0124CA04203D17024A2434C8822430F4CA04203D00F4CB7
:201EA00022400C89224302804A68C2620A880285984208D00A4A904205D00A4A904202D0B0
:201EC000094A904201D1897A01860121818210BD002C01400004004000100040FFFC000093
:201EE00000400140004401400048014007494878782801D2401C00E0782048700448C8210F
:201F0000416200218162017170470000C400002014000020054900224878002801D0401E52
:201F200048700348C821826241627047C40000201400002008B501466B4601229020FEF7E2
:201F40001BFF012801D1FEF7D7FE6846007808BD13B5014601AB01229020FEF77FFF01288D
:201F600001D1FEF7C9FE1CBD2021020C01D010211046020A01D010460839020901D01046AD
:201F8000091F820801D01046891E420801D0881E7047081A704730B47446641E2578641C33
:201FA000AB4200D21D46635D5B00E31830BC184702E008C8121F08C1002AFAD1704770478F
:201FC000002001E001C1121F002AFBD170470346012000E058430A46491EC9B2002AF9D155
:201FE000704700001CB5FFF79FFDFEF7EFF9FA480078AA2801D0FFF77BFDF84D0120287120
:020000040800F2
:20200000FEF740FAFFF7D6FAFFF762F9FFF782F8FFF72EFFFEF74AFEFF202D300026E861BF
:20202000EF4C6E750F272E7501E0102906D2297D0F20411A2046C840A86104E022460F397C
:20204000CA401046AA61FFF72FFB6420FEF7A6F9297D491CC9B229752029E6D3687D401C76
:20206000C0B268750228DED3DB4841787820401A0A2148434B21FEF751F868630F2800D92D
:202080006F63A98E2046C840A861FFF70DFBA869286301202870AE62E8742E71E870FEF715
:2020A000A9FFCD480D300078FF2801D0FEF7D4FF64206862C848CB4F0D30014640316030F1
:2020C000009101900A20FEF769F9686A0028F9D1C14CFEF78FFFC0480D300078FF2801D054
:2020E000FEF7BAFFC048BE490160C04806602878002812D000218023A0220846FEF742FDA2
:20210000FEF7E0F8FEF754F92E70FF202874E873A87368736874B6482863A078697B8842DB
:2021200015D00120FEF710FD387800214200B14803780846FEF726FDA07881004018AE49C2
:202140004018FEF757FDFEF733F9A078687300980078C00774D0A0485030FDF7F3FF0099C8
:20216000000289780843A549FDF7C2FFE862142801D2AE7049E02E2801D2012044E04428F4
:2021800001D2022040E05C2801D203203CE0882801D2042038E0B82801D2052034E0FF21C9
:2021A0001131884201D206202EE0FF217131884201D2072028E0FDF7CFFF914A914BFDF711
:2021C000D9FF01D208201FE0E86AFDF7C5FF8E4A8E4BFDF7CFFF01D2092015E0E86AFDF779
:2021E000BBFF894A8A4BFDF7C5FF01D20A200BE0E86AFDF7B1FF824A864B5242FDF7BAFF09
:2022000001D20B2000E00C20A87001980078C108C90708D00320E872A87805280AD0072847
:202220000BD0AE700EE0C00701D0022000E00120E87207E0092001E002E00A20A87001E0AC
:20224000AE70EE722879002801D00D20A870E87BA978884217D00420FEF776FC3878C100F0
:20226000081A42086348402103785020FEF7A2FCA8786149C00070394018FEF7F5FCFEF702
:2022800097F8A878E873287CE97A884218D00120FEF75AFC38784100401856494208A0201D
:2022A0000B78801A0021FEF76DFCE87A524980000F314018FEF7D8FCFEF77AF8E87A28743F
:2022C0006078A97B88421ED00120FEF73DFC3878062148434208474803788020C11AA0200A
:2022E000801AFEF74FFC4CA0FEF784FC61787820401A0321FEF7F2FA48A0FEF77BFCFEF78A
:2023000057F86078A873E87A022835D0032833D0E0782873687C297B884219D00120FEF778
:2023200013FC38780A2148434208324803788020C11A0020FEF726FC287B0A2148432E4967
:202340001F314018FEF756FCFEF732F8287B6874686A002812D061787820401A0A21484393
:202360004B21FDF7DBFE68630F2801D90F206863A98E1B48C84008E00720CAE7A86A0028B2
:2023800005D0E178012040028840A8610BE0A17802208840A861A978002904D01022491E2D
:2023A0008A400243AA61A869FFF77EF9A86928636878002802D0FEF727F86E70E87C002891
:2023C0007ED0A87C697988425CD0EA79114357D1C821296224E00000C40000201400002044
:2023E000FFFF0000810000208400002088000020AAAA0000820000207E250008C5A70000E5
:20240000CDCCCCCCCC0C99409A9999999989B0409989C0403373D0402D00000064420000B8
:202420000300FFF7B8FD0A2D060D0A291906100D0A2DA0780321401C08E0FFF76BFD1FE021
:20244000FFF754FD1CE0A0780321801CFDF750FEA1706E62AE6213E0E87A022807D00328AD
:2024600005D0E0780721401CFDF742FEE170EE74C8206E62A86203E02979012088432871F8
:202480006879A874287A00282DD02E72C820286268790300FFF77FFD0A27061B1827272731
:2024A000271B1827E87A022807D0032805D0E0780721401CFDF71CFEE170EE74C82000E0D3
:2024C00008E06E62A8620EE0FFF724FD0BE0FFF70DFD08E0AE71EE71AE742E726879002819
:2024E00001D10120E874C823A87A00280AD0401EA872FFF7FBFC2B62F6E7401E6872FFF781
:2025000009FD2B62687A002800D1E2E5F5E74E4C4F434B00000034342E314B487A003438F3
:202520004B487A00000038382E324B487A0039364B487A0000003137364B487A0000313920
:20254000324B487A00003335324B487A00003338344B487A0000322E384D487A0000352EDF
:20256000364D487A000031312E324D487A0032322E344D487A004D55544500000000434FA3
:202580004158004F5054000049325300002020200050434D0044534400444F50004C2D5317
:2025A000484152500000004C2D534C4F57000000004D2D53484152500000004D2D534C4FD2
:2025C000570000000041504F44495A494E470048594252494400000000425249434B57413A
:2025E0004C4C0034374B00000000000000000000000000000000000000000000000000008D
:202600000000000000000000000000000000000000000000000000000000000000000000BA
:2026200000000000000000000000000000000000000000000000000000000000000000009A
:2026400000000000000000000000000000000000000000000000000000000000000000007A
:2026600000000000000000000000000000000000000000000000000000000000000000005A
:2026800000000000000000000000000000000000000000000000000000000000000000003A
:2026A00000000000000000000000000000000000000000000000000000000000000000001A
:2026C0000000000000000000000000000000000000000000000000000000000000000000FA
:2026E0000000000000000000000000000000000000000000000000000000000000000000DA
:202700000000000000000000000000000000000000000000000000000000000000000000B9
:20272000000000000000000000000000000000000000000000000000000000000000000099
:20274000000000000000000000000000000000000000000000000000000000000000000079
:20276000000000000000000000000000000000000000000000000000000000000000000059
:20278000000000000000000000000000000000000000000000000000000000000000000039
:2027A000000000000000000000000000000000000000000000000000000000000000000019
:2027C0000000000000000000000000000000000000000000000000000000000000000000F9
:2027E0000000000000000000000000000000000000000000000000000000000000000000D9
:202800000000000000000000000000000000000000000000000000000000000000000000B8
:20282000000000000000000000000000000000000000000000000000000000000000000098
:20284000000000000000000000000000000000000000000000000000000000000000000078
:202860000000000000000000000000000000000000003C000000000000000000000000001C
:202880000000000000007F000000000000000000000000000000000000C07F00000000007A
:2028A00000000000000000000000000000600000000000000000000000000000000000E0D8
:2028C0000F60000000000000FE00000000000000000000381C70000000000080C301000083
:2028E000000000000000000C18300000000000C080010000000000000000000618380000ED
:2029000000000060800100000000000000000007183800000000007080010000000000008E
:20292000000000030838000000000030800000000000000000008003081C000000000038C5
:20294000800000000000000000008003081C00000000003880000000000000000000800315
:20296000001C1E60C001003800007E00071C003C00008007009C3FF8C00100780080F1C023
:20298000071F803F0000800F00CE38FCC00100F800C0E020C71FC0300000001F002E38E30A
:2029A000810100F00160E011E31C60300000001F001E38C0810100F00160E0013B1C303024
:2029C0000000003E000E1880830100E00330C0011F1C18380000007C00070C80830000C0DE
:2029E0000738C0810F0E1838000000F800070780830000800F38C081070E0C38000000F090
:202A000000FF0000830000000F3CC081030E0C38000000E001170000C70000001E1CC08119
:202A2000030E0E3C000000E081670000470000001E1CE0C10307061C000000C081E3000001
:202A4000670000001C1CE0C00107071C000000C081C30100660000001C1CE0C00107071E9C
:202A6000000000C081C30100360000001C1C60C00103071E000001C080830300360010008D
:202A80000C3C30E08143870F008003C0C08103001E0038000C3C30E080234F0F008003606B
:202AA000C00107001E003800063C18E080133F0F00800770C00107000E007800077804E035
:202AC000800F0E0F0080071800000E000E00788001E003008003040F00000E0E00000E00F3
:202AE0000600E0E0000000000000030F0000F80100001C000300801F0000000000C0000F78
:202B00000000000000001C6003000000000000000060800F00000000000038E0010000002E
:202B2000000000000030800F00000000000070E000000000000000000018800700000000E7
:202B40000000E07000000000000000000018C007000000000000C03F000000000000000047
:202B60000018C003000000000000F01F00000000000000000030E001000000000000F00F5B
:202B800000000000000000000060F800000000000000E003000000000000000000803F003B
:202BA000000000000000000000000000000000000000000000000000000000000000000015
:202BC0000000000000000000000000000000000000000000000000000000000000000000F5
:202BE0000000000000000000000000000000000000000000000000000000000000000000D5
:202C00000000000000000000000000000000000000000000000000000000000000000000B4
:202C2000000000000000000000000000000000000000000000000000000000000000000094
:202C4000000000000000000000000000000000000000000000000000000000000000000074
:202C6000000000000000000000000000000000000000000000000000000000000000000054
:202C8000000000000000000000000000000000000000000000000000000000000000000034
:202CA000000000000000000000000000000000000000000000000000000000000000000014
:202CC0000000000000000000000000000000000000000000000000000000000000000000F4
:202CE0000000000000000000000000000000000000000000000000000000000000000000D4
:202D00000000000000000000000000000000000000000000000000000000000000000000B3
:202D2000000000000000000000000000000000000000000000000000000000000000000093
:202D4000000000000000000000000000000000000000000000000000000000000000000073
:202D6000000000000000000000000000000000000000000000000000000000000000000053
:202D8000000000000000000000000000000000000000000000000000000000000000000033
:202DA000000000000000000000000000000000000000000000000000000000000000000013
:202DC0000000000000000000000000000000000000000000000000000000000000000000F3
:202DE0000000000000000000000000000000000000000000000000000000000000000000D3
:202E00000000000000000000000000000000000000000000000000000000000000000000B2
:202E2000000000000000000000000000000000000000000000000000000000000000000092
:202E4000000000000000000000000000000000000000000000000000000000000000000072
:202E6000000000000000000000000000000000000000000000000000000000000000000052
:202E8000000000000000000000000000000000000000000000000000000000000000000032
:202EA0000000000000000000000004000000007F70E1C0C103070E1EC7011C870000040018
:202EC000000000828811212284081121C60008E200000600000000220409122444902021A6
:202EE000C600088100000500000000220408120442902021C6001081008004000000003E0E
:202F00001808128481882010AA00108100800400000000226010130402872010AA00108166
:202F2000004004000000002280E0120484882008AA00A0800040040000000002000112045A
:202F4000449026049200A08000800F000000008204011224449019029200A08000000400D0
:202F6000000000828C1021228408192192004080600004000000007F74F0C0C103070E3FB9
:202F8000D70140E063001F0000000000000000000000300000000000000000000000000087
:202FA000000000000000000000000000000000000000000000000000000000000000000011
:202FC0000000000000000000000000000000000000000000000000000000000000000000F1
:202FE000000000000000000000000000002000200A3E09A0082004BF07240224022401A499
:203000000020000000B2BD0010081104F2034004440AFF0944084408FF0B4408400800002F
:20302000BDF8001100F20700020008FF072100A903BD02A90B2108FF0F0000B5F70024007A
:20304000240024002F00E40F240024002F002402E40304000000BDDA0010001100F20700CD
:20306000025008CF08410541024F05D00810080000C9E80010081708D50F550857087D0E3F
:2030800057085508D50F170810080000D6C30020001000FC0F0300080288016800FF0F6811
:2030A00000880108020000D0DD00FF0749024902FF070000FF0F49044900F90349044F0EE4
:2030C0000000C3DF0078080006FF01080204055F015501D50F55015F0100010000BAB800F2
:2030E0001000D80F5404520451045004500450045404D80F30000000CCA80004020402FCEF
:2031000001040904050803FF00080008080808F8070000B9A60002028A0252029A02D602B0
:20312000B30FD2028A0252028A0202020000C2CA00020832052A02E6050008F20B020A0292
:203140000AFE0B210A210A0000D1D30010081104F2030004000AFF09110811083108D108E6
:203160001F0B0000B3D90088008808FF0F480008085F075508D50F55095F0940080000CC9A
:20318000E10010041002920112001208F20F120012009200100110060000CABE000208EA0F
:2031A000072A012A012A01EF012A012A012A01EA0302000000C9F9001000D20F56055A05BA
:2031C0005205530552055A055605D20F10000000D2F40010081104F2030004FF0B1509B575
:2031E00008550895085F0B20080000CDCB0080071E04100410041004FF071004100410047C
:203200001E04800F0000B3F600400042084206FE01420042004200FE0F42004200400000EC
:2032200000BFAA0088006800FF0F28084004FE0302000200FE070008000E0000BBFA0004DA
:20324000018800FF0F000010081006D0013F00D001120614080000D7B40044044403240056
:2032600014070C08A7084C0B1408240C440144060000CCAC0000017C01550156015401FC4A
:203280000F5401560155017C0100010000B5A5001000FC0F030008086808880B09080A0CED
:2032A000080BE80808080000CEBB0010001000FF070802080902040203FE0002080208FE16
:2032C000070000C7D00088008808FF0F48000809F4051303FA011603F00500090000BBBB3A
:2032E000001100F20700022100A50FBD04A704A504A504BD0F21000000D3EF000400540F19
:203300005405540555055605540554055405540F04000000D1D40010081104F203000428E1
:203320000A2609E4083F08E409240A200B0000D1A10088008808FF0F48002102A30295029C
:20334000E90F9502A30220020000D4F100220444020009C00F5F08D50F5508D50F5F08C05B
:203360000F00080000CEC2000008FE070A008A08BE09AA0AAB04AA04BE0A8A090A080000B8
:20338000B6C80088006800FF0F280044082408D5050602D405240844080000D0A300040463
:2033A000080220011000FC0F27092409FD0F2609240904080000D7BC0078000000FF0F08D5
:2033C00004C4033F08C4040402F401440624080000BBD6000400020A7D09D50B55055505E7
:2033E00055055505550B7D0901080000B8B4005F0A5506510AFF0555095F0500081007FFBB
:2034000000120714080000C4AC0010001100F207000200090006C0013F00C001000600080D
:203420000000C8CF00200010082C042303E000200820082308EC07100020000000B7D6005C
:2034400088006800FF0F48001204940490049F0490049404F20F0000B5B50020082204223A
:20346000022201E2003E00E207220822082208200E0000CEDE000008020802080208020896
:20348000FE0F020802080208020800080000B9A40000010009FF05550155015501550155D7
:2034A00001FF05000900010000BEDF0048002400F20F090050005401540A5F08F40F540029
:2034C00050000000B4FD0022044402FE090204FA030204FE090000FC010008FF0F0000B2A3
:2034E000E20086088208A204CA0492028301FA0082028202820486080000CAB5000008F0B9
:20350000051001100510091F01120512091201F20502080000B5E300440153015203560520
:2035200052017C095309D20F5601520142010000B5C8000000F801880088008800FF0F88E5
:203540000088008800F80100000000D6D00000080008F80F000800080008FF0F100810084F
:20356000100800080000D6B90020001000FC0F03008201BA02AA0AAB0EAA02BA02820100C7
:2035800000CDA30008080806FF0108080808F8070000FC0F04040404FC0F0000BCD30024A5
:2035A000082405FF0114040009D4003F0444087C008004E0090000C8C800C80F48047F0437
:2035C0004804C80F1008EF0508020805F80808080000B9CA00FE0F02023202CE010802FAFA
:2035E00002AE02AB0FAE02FA0208020000D5CF00F0000C0302046204F108F909F909F108A4
:20360000620402040C03F000A1F100F0000C03020402040108010801080108020402040C66
:2036200003F000A1F000020005000200F800040102020202020204020E0180000000A1E6D8
:203640000006000900090006000104FF07210421007300070000000000A848000000000091
:20366000FF070104010400005B00000001040104FF07000000005D00000000020000000070
:20368000000000002E00000000000000000000000000200038004403F800D0012C02C001A5
:2036A00025000402FC03240224001800000050000000C00120022002C00100006F00600099
:2036C0008003E00080036000000077000000C001A002A002C002000065002002E0034002BA
:2036E0002000200000007200F801040204020402F8010000300000000802FC0300020000D9
:203700000000310018038402440224021802000032000801040224022402D80100003300B8
:20372000C000A0009802FC038002000034007C01240224022402C40100003500F0014802B6
:2037400024022402C8010000360000000400C40334000C0000003700D80124022402240291
:20376000D801000038003801440244022401F800000039000000000010020000000000000B
:203780003A000C000402FC0304020C000000540002020202FE030002000200006C000000FF
:2037A0002002E60300020000000069002002E00320022000C00300026E0000000000000019
:2037C000000000000000200000002000F80320022002000074000202FE0320022000C003EC
:2037E0000002680000006002A002A00220030000730000002000F803200220020000740050
:2038000000004001A002A002C003000261000000C00120022202FE03000264002008E00F78
:20382000200A2002C001000070003C00C0037C00C0033C0000005700F8010402040204022F
:20384000F80100004F000402FC03240250008C0304024B000002E0039C00F00080030002CF
:2038600041002008E00800050003E00020007900200260038000600320020000780004026E
:20388000FC0304020002000200034C000000C001200220026001000063000402FC032402DC
:2038A00074020C03000045000202FE0380006001200200006B000402FC0324022402D801A1
:2038C000000042002000E00100022002E00300027500E0032000E0032000C00300006D00F1
:2038E00000002002FC03220222020400660018032402240244028C0100005300FC033C002D
:20390000C0033C00FC0304024D000402FC033002C400FC0304004E000400FC010002000205
:20392000FC010400550000004005A00AA00A600A2004670000002002A0036002200200005A
:203940007A0004020402FC030402040200004900000800082008E607000000006A00F80105
:203960000402040204020C01000043000402FC0324026400980300025200200040002000E7
:203980004000200040007E002000200020002000200020002D000004000300000000000015
:2039A00000002C0090006000F8016000900000002A00F000080104024402CC01400047003F
:2039C000000C04080408FC07040004004A000402FC0324022402D80100004200F801040203
:2039E000040204020C01000043000402FC0304020402F801000044000402FC03240274027C
:203A00000C03000045000402FC03240274000C00000046000402FC0320002000FC03040217
:203A2000480004029C0360009C03040200005800060009000900E607F81F0C30042002407E
:203A4000024002400240024004201E1000000000A1E600000030007800480078003440FCAD
:203A60007FFC7F04410401C407CC073C003C0000000000A848008000C08060C0B06098383C
:203A80008E1F8607804080C083C08F7F9C3F30006000C0008000B7D60010041007D003FF66
:203AA000FFFFFFD0417045705C5C594F4F4F6E5C78705F604740404040BCEC0010047004ED
:203AC000627E8E7F8C81FEC7FE77F23FF21FFE37FE27F847F8C7FFFFFF7F0000B2E20010F8
:203AE000047004627E8E7F8C41007EFE7EFE42927E927E927E927EFE42FE7E007E0040CED2
:203B0000C20000400070FCBFFC8F248424CCFC5DFD7527252625FC75FC5D24CC24802480F1
:203B20000480B6C800400040004200CE3FCCBF4098E0C8BE439E6F823C82389E6EBE47A072
:203B4000C120802080C9E800004017401740D57FD57F575557557D557D5557555755D57F75
:203B6000D57F174017400040D6C300008040C042604230421CC20FFE037E00C23FC27F42A4
:203B80004042404240407040700000CEDE000020042004200420042004200420FC3FFC3F67
:203BA0000420042004200420042004200020B9A400000800080088FECFFE6F523952195296
:203BC00009520952195239FE6FFECF008800080008BEDF0080008000C001C001E003A00215
:203BE0009004800080008000800080008000800080000000A1FB0080008000800080008015
:203C0000008000800080009004A002E003C001C001800080000000A1FA0000007000780006
:203C2000483008378837F80070003F000820F83F0821080108010801F00000005000C007BD
:203C4000301808200820082008103808000043000820F83FF801003EF801F83F082000001B
:203C60004D000820F83F0820082008201010E00F0000440000007038882008210821082201
:203C8000381C00005300E00F10100820082008201010E00F00004F000820F83F0821080107
:203CA00008010801F000000050000800780088070038000EC8013800080056000000001FDF
:203CC0008020802080208020001F00006F00000010201020F83F00200020000000006C0093
:203CE000000000000000C030C0300000000000003A000000E00F1010082008201010E00F3C
:203D0000000030000000000010201020F83F00200020000031000000703008280824082245
:203D20000821F03000003200000030180820082108218822701C0000330000000006800552
:203D400040243024F83F0024002434000000F8198820882088200811080E0000350000008B
:203D6000E00F1011882088209020001F00003600000018000800083E88016800180000006F
:203D800037000000701C8822082108218822701C000038000000F001081208220822101176
:203DA000E00F00003900000008200820F83F082008200000000049000020003CC023380242
:203DC000E002002700380020410008201830682C80038003682C18300820580018000800BB
:203DE0000820F83F08200800180000005400000000000000000000000000000000002000A8
:203E00000000001F8020802080209010F03F002064001020083808260821C8203820081829
:203E200000005A000820F83F3020C00000070818F83F08004E00C00730180820082008227C
:203E4000381E0002000047000820F83F0820002000200020003000004C000800F803003E1F
:203E6000F801003EF8030800000057000820F83F0821000100010821F83F0820480008004F
:203E80003800C820003FC82038000800000059000820F83F8820882088207011000E00005C
:203EA00042000820F83F882088008803880C7030002052000820F83FF801003EF801F83F3A
:203EC000082000004D00000000010001000100010001000100002D000820F83F8820C00172
:203EE00028261838082000004B0000000000000000000006002000061F7000F61F78C0FFAA
:203F00003F3EFCFF7B1FFC1FF00FFC06F8070006FF0100FEFF0300FE9F0700FE01070016AE
:203F2000000600780000007CFC7F007FFC7FC07FFC7FF0330C1CFC310C1C7C300C1C38307C
:203F40000C1C08300C1C00310C1C00330C1C80370C1C803FFC7F003EFC7F007CFC7F0078E4
:203F6000FC7F0070000000000000CABC00000000000000020000FC030000FE030000FE03CD
:203F800000001E0000F8FFFF7FF8FFFF7FF8FFFF7FF8FFFF7F003EE001003EF811803D7E8E
:203FA0007080B13F7080E10F3880FF033CE0FF1E1CFCFF1F1EFCC39F0FBC81E3078001FCE9
:203FC0000380F9FF0080F97F0080F9FF018009F00380019E0F80811F1F80C11F1E80C10746
:203FE0003C80C100388001001800000000BBD600000000000000000000040000000E006070
:020000040800F2
:20400000000E00610007806380078063C0FFC363F0FFE361F8FEF3707CFEFF707C66FF3171
:204020006866FF336066B7336066333F6066331F6066331E6066331C6066331E6066331F25
:204040006066B33F6066F33B6066F3316066F33060FE733060FE337060FE0370600000703E
:2040600060000060600000600000006000000000B8B400000000000000001000E0003000D4
:20408000E0003818E0003CF8E0FF1FF8E1FF1FF8E1FF0FE0E1FF0F0001001C0000001C00F8
:2040A000000039FCFFFF3FFCFFFF3FFCFFFF33FCFFFF339C73C2319C73C6319C73E7709CF1
:2040C00073EF709C731E709C731C709C733C709C737C709C73FE70FC7FFF71FCFFE731FCA9
:2040E000FFC7330000833B000080390000003800000008CDCB000000000000000000000078
:2041000000000000FC1F0000FC1FE07FFC1FE07FFC1FE07F001800600018006000180060AE
:20412000001800600018006000180060001800600018FCFFFF1FFCFFFF1FFCFFFF1F0060DC
:2041400000180060001800600018006000180060001800600018E07F0018E07F0018E07FA2
:20416000FC7FE07FFC7F0000FC7F000000000000000000000000B3F60000000000000000C6
:2041800000000007006080070060E0072060F8FF3FE0FFFF3FE0FFFF3FE06F8001E0618069
:2041A0000160E0FF0760E0FF0760E4FF2760E6FF370007003CC0FFFF3FE0FBFF1FF8F9FF63
:2041C00007FCF87F007C1863006C18630064FCFF3F60FFFF3FE0FFFF3FE01F6300E0196371
:2041E000206018636020F8FF7F00F8FF7F00F8FF7F00F8FF3F00000000C8B700000000002D
:20420000000000000030000000300000003000001030000438F0FF0F78F0FF0FF8F0FF0F28
:20422000F001C027E001E033C000F0790000F07C0000703E0000201F0000C00F0000F0076A
:204240000000FE01FCFFFF00FCFF1F00FCFF0700FCFF3F0004E0FF000000FE030000F00734
:204260000000C00F0000001F0000003E0000007C000000780000003000000000C8CF000057
:2042800000000000000000300000063000000E3000000EF0FFFF07F0FFFF07F0FFFF07305D
:2042A00018060330180603301886033018860130188681F0FFFFFFF0FFFFFFF0FFFFFF30A6
:2042C00000C0107000C0386000C038E0FF003EE0FF0F1FE0FFBF0F6080FF076000FC0360D2
:2042E00000FE0360E0FF07E0FF1F0FE0FF031EE07F003CE003003C0000001800000010C8C0
:20430000A1000000000000000000003800301038003C3878007F78F0E07FF8E0F91FF0E159
:20432000F903E0417000C0001000000000001000000070F8FF7FF0F8FF7FF0F9FF7FE0F984
:20434000FF7F8019C6010018C6010018C601FC1FC601FC1FC601FC1FC601FC1FC601001821
:20436000C6110019C6318019C671C01BC671F0FBFF7FF8F9FF7F78F8FF3F300000001000AE
:204380000000CFFB0000000000000000000000000000000630000606700006067000060619
:2043A00078000606380006063C1806061C7C06060EFC07060FF8078607E006E6034006FE6C
:2043C0000100FEFF0000FE7F0000FE7F008007FE01E007E603FC07C607FC078607780606AB
:2043E0000F1806061E0006061E0006063C0006063C000606380006063800000638000000EC
:204400000000000000B9D80000000000000000000000000000FFFF7F00FFFF7F00FFFF7F94
:204420001C0300003C7080017C7080037870C0037070E0012070F0010070F80000707C047C
:2044400038703F1C38F01F1C38F0071C38FFFF1F38FFFF0F38FFFF0F38FFFF0738700000E7
:204460003870000038700030387000703800007038000078F8FFFF3FF8FFFF3FF8FFFF1FCD
:204480000000000000000000B1D500000000000000000000061C0000061C0000061C7000C0
:2044A000060C7000060E70FCFFFF3FFCFFFF3FFCFFFF3FFCFFFF07000603000086030000B8
:2044C000860300E0860100E0000000E0000000E0000000E0000070E0000070E0000070E07C
:2044E000000078E0FFFF7FE0FFFF3FE0FFFF3FE0000000E0000000E0000000E0000000E04D
:20450000000000E0000000E0000000B4F2000000000000000000008001000080011038806B
:204520000130388001783880017C3880013E3880011F3880C10F3880F907F8FFFF03F8FFE5
:20454000FF00F8FF3F00F8FF03003880010038800100388001003880010038800100F8FF98
:20456000FF7FF8FFFF7FF8FFFF7FF8FFFF7F388001003880010038800100388001003880C2
:204580000100388001000080010000000000BFAA00000000000000000070000000F800000F
:2045A00000880100000801000008010000F8010000F0000000000000000000000000000077
:2045C0000000000000E0FFFF07E0FFFF07E0FFFF07E0000300E0000300E0000300E00003A0
:2045E00000E0000300E0000300E0000300E0000300E0000300E0000300E0000300E00000A6
:2046000000E0000000E0000000E000000000000000A84800000000000000000060000000AA
:20462000F8000000980100000801000008010000F8010000F00000000000000000E03F00CF
:2046400000F8FF0000FEFF03007FF007000F80078007000F8003000EC001000EC001001C84
:20466000C000001CC000001CC001001CC001001CC001000EC003000F8007800F801FC007AB
:20468000001FE003000EE001000860000000000000000000A1E6000000000000000000003A
:2046A0000000000000000000FE3F0000FE3F0000FE3F0000FE3F0000060C0000060C0000E2
:2046C000060C0000060C0000060C0000060C0000060C40FCFFFF7FFCFFFF7FFCFFFF7F00D5
:2046E000060C0000060C0000060C0000060C0000060C0000060C0000060C0000FE3F0000FF
:20470000FE3F0000FE3F0000FE3F00000000000000000000000000D6D0000000000000003C
:204720000000000700200007006000070070000700700007007000070038003F003800FFD1
:20474000013C00FF071C00E71F1E08073F0E1C077C077C07F007FC07E003F007E003E007B3
:20476000F80300077E0700873F0F00FF1F0E00FF071C00FF011C003F0038000700380007B6
:204780000038000700700007007000070070000700700007001000000000CEC4000000005C
:2047A000000000080000041C00000E1E00000F1F00C0870F00E0C3FF7FF0F1FF7FFCF8FFAE
:2047C0007F7CFEFF7F1C3E0000086C0C00C0610C00C0610C008061CC008061EC038061ECE4
:2047E000078061CC0780610C03FC7F0C02FC7F0C70FC7F0C7080610C7080E1FF3F80E1FF3B
:204800003F80E1FF3FC0E1FF07C0610C00C0610C0000600C0000600C0000000000B4FD0030
:2048200000000000000040000006F0000006FC000006FF0000E63F00FCFFFF7FFCFFFF7F24
:20484000FCFFFF7FFCFFFF7F0086030000860F1000860F3800060E3C0006043F0000F81FBB
:20486000F0FFFF0FF0FFFF01F0FF1F0030000000300000003000000030000000F0FFFF3F51
:20488000F0FFFF3FF0FFFF3F00000038000000300000003E0000003E0000003E0000000C90
:2048A000BBFA00000000000080000000E0010000F0010000FE0100807F0000F0FFFF7FFC8A
:2048C000FFFF7FFCFFFF7F78000002080E0003000E8007000EE007000EF003000EFC0100B9
:2048E0000E7F0000EE1F0000FE0700FCFFFF7FFCFFFF7FFCFFFF7FFCFFFF7F00FE0F000028
:20490000CE1F00000E7F00000EFC00000EF801000EE003000EC007000E80070000000300AE
:20492000000001D0DD000000000000000000F0FFFF1FF0FFFF1FF0FFFF1F30180603301809
:2049400006033018060330180603F0FFFF0FF0FFFF0FF0FFFF0F00000030F8FFFF7FF8FF19
:20496000FF7FF8FFFF7F180C063C180C061C180C061E180C060F18FC070718FC7F0418FC4A
:20498000FF03180CFF07180CC61F180C063FF80F067CF80F0678F80F067E0000067E00005C
:2049A000003C00000008C3DF0000000000000000000000000000C0003000C0007070C000C1
:2049C0007870C0003870C0003C70C0001E70C0000F70C0800F70C0E00770C0FC01F0FFFF0D
:2049E00000F0FF3F00F0FF0F00F0FF000070C0FF0770C0FF1F70C0FF3F70C0FF3F70C0000C
:204A00003870C0003870C0003870C0003870C0003870C0003870C0003F00C0003F00C00028
:204A20001F0000000E00000000CEDE000000000000000018000000180000001860000018DD
:204A4000600000186000001860000018600000186000001860000018600000186000001896
:204A600060000018E0FFFF1FE0FFFF1FE0FFFF1FE0FFFF1F60000018600000186000001862
:204A8000600000186000001860000018600000186000001860000018600000186000001856
:204AA000000000180000001800000018B9A400000000000000000000006000000060300061
:204AC0000060700000607000006078F8FF7F3CF8FF7F1CF8FF7F1EF8FF7F0F3833E60F3869
:204AE00033E6073833660238336600383366003833660038336600383366023833E6033820
:204B000033E60738336607F8FF7F0FF8FF7F0EF8FF7F1EF8FF7F3C0000603C00006038001A
:204B2000006030000060100000600000000000BEDF00000000000080000000C0030000F045
:204B4000030000F8010000FE000080FFFF7FF0FFFF7FFCFFFF7FFCFFFF7F7C20000018301B
:204B6000000000780000007C0000003F0000C01F0000F8070000FC030000FCFFFF7FBCFFF1
:204B8000FF7F8CFFFF7F80C3C10080C3C10080C3C10080C3C10080C3C10080C3C10080C333
:204BA000C10080C3C10080C3C1008003C00000000000D7F700F0FFFF0FFCFFFF3FFEFFFFE9
:204BC0007FFEFFFF7FFFFFFFFFFFFFFFFFFFFFFFFFFFFFFFFFFFFFFFFFFFFFFFFFFFFFFFF6
:204BE000FFFFFFFFFFFFFFFFF307F0FFE10380FFC00100C0800100C0800380FFC007F0FFF7
:204C0000E1FFFFFFF3FFFFFFFFFFFFFFFFFFFFFFFFFFFFFFFFFFFFFFFFFFFFFFFFFFFFFFDE
:204C2000FFFFFFFFFFFEFFFF7FFEFFFF7FFCFFFF3FF0FFFF0FCCBE00F0FFFF0FFCFFFF3F8D
:204C4000FE0FE07FFE03807FFFC003FE7FF01FFC3FFC7FF81FFEFFF01FFFFFF18FFFFFE362
:204C600087FFFFE3C7FFFFC7C7FFFFC7E7FFFFC7E37FFFCF6300FECF6300FECFFF7FFECF2D
:204C8000FF7FFEC7FFFFFEC7FFFFFEC7FFFFFEE3FFFFFEE3FFFFFFF1FFFFFFF0FFFF7FF83D
:204CA000FFFF1FFCFFFF03FEFE7F807FFE7FE07FFCFFFF3FF0FFFF0FB5A100F0FFFF0FFCFF
:204CC000FFFF3FFE07E07FFE01807FFF0000FE3F0000FC3F0000F81FF001F00FFE0FF00FAB
:204CE000FF1FE087FF7FE0C7FF7FE0E3FFFFC0F3FFFFC1F3FFFFC1F3FFFFC1FBFFFFC3FB3E
:204D0000FFFFC3FBFFFFC3FFFFFFC3FF37FFE3FF17FFE1FF67FFF1FFFFFFF09FE7FFF89FE9
:204D2000E17FFC9FE03FFE1FE49FFF1EE7E77F9EE7FF7FFCFFFF3FF0FFFF0FDFDD0000005A
:204D40000000001E0000801F0000801F0000C01F0000C0011C07C0001F07C0801F07C0C167
:204D60001F07C0F30300C0FF010080FF0000007F0000000C000000000000000000003F004E
:204D8000C0FFFF07C0FFFF07C0FFFF07C0FFFF07C07F000000FE010000F8070000E01F00C3
:204DA0000080FF000000FC03C0FFFF07C0FFFF07C0FFFF07C0FFFF07000000000000000061
:204DC0004E00C0FFFF07C0FFFF07C0FFFF07C0FFFF0700000006000000060000000600005F
:204DE000000600000006000000060000000600000006000000060000000600000006000083
:204E000000004C0000F83F0000FEFF0180FFFF0380FFFF07C007C007C0010007C000000EE7
:204E2000C000000EC001000EC0030007C00FE00780FFFF0700FFFF0300FEFF0000E01F00D3
:204E4000000000004F0000E01F0000FCFF0000FFFF0180FFFF03C01FE007C0030007C00138
:204E6000000EC000000EC000000EC001000FC0038007803FF807803FF803003FF801003886
:204E80003800000000004300C0FFFF07C0FFFF07C0FFFF07C0FFFF0700C0070000F00300C9
:204EA00000F8070000FC1F0000BF7F00801FFE01C007F803C003E007C001C007C000000741
:204EC00000000004000000004B000000000000000000000000000000000000000000000083
:204EE0000000000000000000000000000000000000000000000000000000000000000000B2
:204F000000000000000000000000200000F01F0000FEFF0000FFFF0380FFFF03C007C00755
:204F2000C0010007C000000EC000000EC000000EC0030007C00FE00780FFFF0300FFFF013F
:204F400000FC7F000000000000000000300000000000000000060000000600000006000094
:204F600000060000000000000000000000000000000000000000000000000000000000002B
:204F800000000000000000000000000000002E000000000000000000001C0000001C0000AB
:204FA000000E000000070000C0FFFF07C0FFFF07C0FFFF07C0FFFF070000000000000000C8
:204FC000000000000000000000000000000000003100000400000007000780078007C007B9
:204FE000C007C003E007C001F007C0007806C0003E06C0001F06C0C10F06C0FF030680FF84
:20500000010680FF0006001E000600000000000000003200000040000006C001000FE003B5
:20502000800FE007C0038007C0810107C080010EC080010EC0C0030EC0C10307C0FFDF0708
:20504000807FFF03807FFE03001EFC00000000000000000033000000780000007E0000000C
:205060007F0000C07F0000E0730000F07100007C7000003E7000801F7000C0FFFF07C0FF91
:20508000FF07C0FFFF070000700000007000000070000000000034000080C10100F8E103A3
:2050A000C0FFE107C0FF8107C0EF000EC060000EC060000EC060000EC0E0000FC0E0010764
:2050C000C0C0E707C0C0FF03C080FF010000FE000000000000000000350000007C000000F1
:2050E000FF0100C0FF0300F0FF0700F8830700FE010700FF000EC0CF000EC0C7000EC0C1B0
:20510000000EC0C0010700C0FF070080FF030000FF010000FE00000000003600C0000000BD
:20512000C0000000C0000000C0000004C0008007C000F007C000FE07C080FF01C0E03F0049
:20514000C0F80700C0FE0000C03F0000C00F0000C0030000C0010000000000003700000049
:20516000FC01007FFE03807FFF07C0FFCF07C0E10707C0C0030EC080010EC080010EC0C0BA
:20518000030EC0E10307C0FF8F07807FFF07007FFE03001EFC010000000000000000380026
:2051A00000FE010000FF030080FF0700C0870708C001070EC001860FC000E60FC000FE0370
:2051C000C001FF01C0837F00C0FF1F0080FF070000FF0300007E0000000000000000000068
:2051E0003900C0FFFF07C0FFFF07C0FFFF07C0FFFF0700C0070000F0030000F8070000FCAD
:205200001F0000BF7F00801FFE01C007F803C003E007C001C007C0000007000000040000D4
:2052200000004B00C0FFFF07C0FFFF07C0FFFF07C0FFFF070080010000800100008001008C
:20524000008001000080010000800100C0FFFF07C0FFFF07C0FFFF07C0FFFF0700000000B7
:205260000000000048000000000000600007006080070060C0070060E0070060F006006074
:20528000780600603E0600601F0600E00F0600E0070600E0010600E00006000000060000B2
:2052A0000000000000007A000000000000000006000000060000000600000006000000005C
:2052C0000000000000000000000000000000000000000000000000000000000000000000CE
:2052E00000000000000000002E00C0FFFF07C0FFFF07C0FFFF07C0FFFF07C0FF0F0000FEA0
:20530000FF0100C0FF070000FC0700F0FF0780FFFF00C0FF0700C0FFFF07C0FFFF07C0FF41
:20532000FF07C0FFFF07000000004D00000000000000000000000000E00000F0000070C055
:205340001C30F01C30FC1C301E00F00F00E0070080010000000000000000000000000000F8
:205360000000000000000000000000000000000000000000A3BF00000000000000000000CB
:20538000001000003800007E0000FF0080FF01C0FF07C0FF0700380000380000380000385C
:2053A00000003800003800003800003800003800003800003800003800003800000000A154
:2053C000FB00000000003800003800003800003800003800003800003800003800003800DA
:2053E000003800003800003800003800003804C0FF07C0FF0380FF0100FE00007C000038D7
:2054000000000000000000000000A1FA00000000000000000000700000F80000880000F809
:205420000000707E0080FF03C0FF07E0000F70000C300018100018100010100010100018F3
:2054400030000820000CE00006E00302E00300000000000000A1E60000000000000038007B
:20546000007C00004400007C0000380000000000000000000000F0FF0FF0FF0F301000304C
:205480001000301000301000301000301000301000301000301000300000300000000000DC
:2054A000A84800000000000100C00100E00100F0000070E01C30F81C707C1CE01F00E00FC3
:2054C00000C007000000003F00000000F0FF1FF0FF1FF0FF1F3030003030003030006030EC
:2054E00000603800E03F00C01F00800F00500000000000F00300F80700FC0F001C1C000CF6
:2055000018000C18000C1C001C0E00F80F00F80700E0036F00000C0000FC0000FC1F00E0A2
:205520001F00F01F00FC0700FC0000FC1F00C01F00FC1F00FC07007C00770000000000E053
:205540000300F80700FC0F005C1C004C18004418004C18007C1E007C0E0078060040026559
:205560000000000000000000FC1F00FC1F00FC1F007800001800000C00000C00000C000026
:205580000000000000720000000000FF01C0FF07E0FF0FF0000E70001C30001870001CE0A7
:2055A000010FE0FF0FC0FF0700FE003000000000000000000300800300C00100E0FF0FF0D4
:2055C000FF0FF0FF0F0000000000000000000000003100000000800108E0010EE0010F70B6
:2055E000800F30C00B30E00970F808F03F08E01F08C007080000083200000000800103C00D
:205600000107E0010F70001C30181830181830381CF07F0EE0FF0FC0E707008001330000F5
:20562000800100C00100F00100F80100BE01008F01C08701E0FF0FF0FF0FF0FF0F0080013C
:205640000080013400000001001C07E01F0FE01F0EE00D18200418200C18200C1C203C0F1E
:2056600020FC0F20F80700C000350000000000E00300F80700FE0F001F1CC00F18F00D18C5
:20568000F00C18301C1C10F80F00F80F00F003360000000020000020000020000820000FB0
:2056A00020E00F20F80720FE00A01F00E00700E00100600000370000000080E307E0FF0F28
:2056C000E0FF0F703C1C301818301818303C18E03F1CE0FF0FC0E70700C0033800000200FC
:2056E000C01F00E03F00E03D1070701C30601F30E00F70F003E0FF01E07F00C01F00000331
:20570000003900000000E00F00F01F1830181EF0DF07E0FF01003C0100EF0FE0F31FF030D1
:205720001810F01F00E00F2500000000300000300000300000300000F0FF1FF0FF1FF0FF53
:205740001F3000003000003000003000005400000000000C00000C00000C00C0FF07C0FF6D
:205760000FC0FF1F000C18000C18000C18000C180000007400000000F0FF1FF0FF1FF0FF2D
:205780001FF0FF0100FF1F00E01F80FF1FF0FF00F0FF1FF0FF1FF0FF1F4D0000000000FCDD
:2057A0001F00FC1F00FC1F003800000C00000C00000C00001C0000FC1F00F81F00E01F6E7D
:2057C0000000000000FC0700FC0F00FC1F00001C00001800001800000C00000F00FC1F001E
:2057E000FC1F00FC1F750000FC1F00FC1F001800000C00000C0000FC1F00F81F000800005E
:205800000C00000C0000FC1F0000006D0000000000FCFF00FCFF00180C000C08000C180096
:205820000C18000C1C00780F00F80700C001000000700000000000000000001C00001C002D
:2058400000000000000000000000000000000000000000000000002E00000000F0FF1FF01C
:20586000FF1F0000180000180000180000180000180000180000180000180000004C0000FE
:205880000000000C00007C0000F00100800F00001C00001E00C00700F800003C00000400C7
:2058A0000000007600000000000000000000000000000000F0FF1FF0FF1F00000000000056
:2058C0000000000000000000006C0000000000000000780E007C0C00CC1800C41800C418B2
:2058E000008C18009C0F00180F0000000000007300000000808307C0870FE08F0FF01E1CB7
:20590000301C18303818703818E0711EE0F10FC0E10700C0035300000000000000000000D6
:20592000000000000000000000000000000000000000000000000000000000200000000047
:2059400000F00300F80700FC0F001C1C000C18000C18000C18003C1E003C0F0038070000C2
:2059600003630000000000F00300F80F00FC0F001C1C000C18000C18000C1CF0FF1FF0FF17
:205980001FF0FF1F0000006400000000000000000000070000E0070000F0070000F8070092
:2059A00000F80700007C00000C3C001E1E1C801F1E1CC01F1E3CE01F1E3CF00308F8FF016E
:2059C00000F8FF0000F07F0000E03F0000C00F000000000000000000003F00000000000034
:2059E000000000FCFFFF1FFCFFFF1FFCFFFF1FFCFFFF1FF81F0000E07F000080FF0100004D
:205A0000FE070000F03F0000C0FF000000FF030000FC0FFCFFFF1FFCFFFF1FFCFFFF1FFC3F
:205A2000FFFF1FFCFFFF1F000000004E000000000000000000FCFFFF1FFCFFFF1FFCFFFFB6
:205A40001FFCFFFF1F0000001C0000001C0000001C0000001C0000001C0000001C00000066
:205A60001C0000001C0000001C0000001C0000001C0000001C0000001C000000004C000016
:205A800000000000FC1F0080FFFF01E0FFFF03F0FFFF0FF8FFFF0FF801801F7C00001E3C1B
:205AA00000001C1C00003C1C0000383C00003C3C00001EF800001FF80FF01FF0FFFF0FF032
:205AC000FFFF07C0FFFF0300FFFF00000000004F000000000000C0070000FEFF0080FFFF71
:205AE00003E0FFFF07F0FFFF0FF807E01FF800001F7C00001E3C00001C1C00003C1C000046
:205B00003C3C00001C3C00001EF800801FF80FF80FF00FF80FE00FF807800FF8010000086E
:205B20000043000000000000000000FCFFFF1FFCFFFF1FFCFFFF1FFCFFFF1F00E0070000D7
:205B4000F8030000FC010000FE070080FF1F00C0DF7F00E087FF01F803FE03FC01F80F7CA9
:205B600000E01F3C00801F1C00001E0C00001C000000104B0000000000000000000000008E
:205B8000000000000000000000000000000000000000000000000000000000000000000005
:205BA0000000000000000000000000000000000000000000000000000000000000000000E5
:205BC000000000000020000000000000E0070000FFFF00C0FFFF03E0FFFF07F0FFFF0FF825
:205BE00001801F7C00001F3C00001C1C00003C1C00003C1C00003C3C00001EF800001FF8A1
:205C000007E00FF0FFFF0FE0FFFF0780FFFF0100FC1F0000000000300000000000000000E2
:205C20000000000000000000000007000080070000C0030000E0010000F0010000F8FFFF4B
:205C40001FFCFFFF1FFCFFFF1FFCFFFF1F00000000000000000000000000000000000000DA
:205C600000000000000000000031000000000000010000C001001CE001001EF001001FF80E
:205C800001801F7800C01F3C00F01F3C00F81D1C00FC1C1C007E1C1C801F1C3CC00F1C7C0D
:205CA000F0071CF8FF031CF8FF001CF07F001CC01F001C0000001C000000003200000000D4
:205CC00000000000008001C001C001C007F003C00FF803C00FF800001F3C00001E1CC00021
:205CE0001C1CC0001C1CC0011C1CE0011C3CE0031C7CF8071FF8FFFF1FF83FFF0FF01FFF41
:205D000007E00FFE0300007000000000003300000070000000780000007C0000007F000006
:205D2000807F0000E0770000F0730000FC7100007E7000803F7000C00F7000E0077000F892
:205D4000FFFF1FFCFFFF1FFCFFFF1FFCFFFF1F0000700000007000000070000000700034E7
:205D600000000000000000C00100F8C00780FFC00FF8FFC00FF8FF001FF877001C7838003E
:205D80001C1838003C183800381838003C1838001C1878001E18F0001F18F0FF0F18E0FFF9
:205DA0000F18C0FF071880FF0100003C0000000000350000000000000000000000FF0100ED
:205DC000C0FF0700F0FF0F00F8FF0F00FE031F00FF001EC07F001CF07F003CF8730038FC17
:205DE0007100387C70001C1CF0001C0CF0001E00E0C71F00E0FF0F00C0FF070080FF0300B4
:205E000000FE003600000000000000000018000000180000001800000018000010180000C6
:205E20001E1800C01F1800F81F1800FF1F18C0FF0318F03F0018FC070018FF0100987F007D
:205E400000F80F0000F8030000F801000078000000000000003700000000000000F801C0DF
:205E60000FFE07E03FFF0FF0BFFF0FF8FF8F1F78F8031E3CE0031C1CE0011C1CE0013C1C45
:205E8000E0013C1CE0013C3CF0031C78F8031EF8FF8F1FF03FFF0FF01FFF0FC00FFE030001
:205EA00000F80100000000380000000000807F0000E0FF0100F0FF0300F0FF0300F8E1070E
:205EC00020788007383C00073E1C00873F1C00E61F1C00FF0F3C00FF033C80FF0078E07FED
:205EE00000F8FF1F00F0FF0700E0FF0100C07F0000000F000000000000390000000000002F
:205F0000000000000000000000001C0000001E0000001E0000001E0000001C0000000000EF
:205F2000000000000000000000000000000000000000000000000000000000000000000061
:205F400000000000000000000000002E000000000000000000FCFFFF1FFCFFFF1FFCFFFFE7
:205F60001FFCFFFF1F00C0010000C0010000C0010000C0010000C0010000C0010000C001A2
:205F80000000C00100FCFFFF1FFCFFFF1FFCFFFF1FFCFFFF1FFCFFFF1F000000004800007B
:205FA000000000000000000000001C0030001E0030001F0030801F0030C01F0030F01B000F
:205FC00030F8190030FC1800307E1800301F1800B00F1800F0071800F0031800F001180015
:205FE0007000180030001800000000000000007A0000000000FCFFFF1FFCFFFF1FFCFFFF2B
:020000040800F2
:206000001FFCFFFF1FFCFFFF1FFCFF0700F0FFFF0000FEFF1F00C0FF1F0000FC1F00F0FF3B
:206020001F80FFFF07FCFF3F00FCFF0100FCFFFF1FFCFFFF1FFCFFFF1FFCFFFF1F00000022
:20604000004D000000000000000000FCFFFF03FCFFFF07FCFFFF0FFCFFFF1F0000801F0034
:2060600000001E0000001C0000003C000000380000003C0000001C0000001EFCFFFF1FFCE7
:20608000FFFF1FFCFFFF0FFCFFFF07FCFFFF0100000000550000000000000000001C00006D
:2060A000001C0000001C0000001C0000001C0000001C000000FCFFFF1FFCFFFF1FFCFFFF28
:2060C0001FFCFFFF1FFCFFFF1F1C0000001C0000001C0000001C0000001C0000001C0000C7
:2060E000000000000054000000000000000000FCFFFF1FFCFFFF1FFCFFFF1FFCFFFF1FFCEC
:20610000FFFF1F1CC0011C1CC0011C1CC0011C1CC0011C1CC0011C1CC0011C1CC0011C1C77
:20612000C0011C1CC0011C1CC0011C1C00001C0000001C00000000450000000000000000F7
:2061400000000000000000000000000000000000000000000000000000000000000000003F
:20616000000000000000000000000000000000000000000000000000000000FEFFFF000023
:20618000000000000000000000FCFFFFFF3F000000000000000000C0FFFFFFFFFF0100000B
:2061A000000000000000F8FFFFFFFFFF0F0000000000000000FEFFFFFFFFFF7F0000000065
:2061C00000000080FFFFFFFFFFFFFF01000000000000E0FFFFFFFFFFFFFF07000000000065
:2061E00000F0FFFFFFFFFFFFFF0F000000000000F8FFFFFFFFFFFFFF1F000000000000FC9B
:20620000FFFFFFFFFFFFFF3F000000000000FEFFFFFFFFFFFFFF7F000000000000FFFFFFD3
:20622000FFFFFFFFFFFF000000000080FFFFFFFF01FEFFFFFF0100000000C0FFFFFF01002D
:2062400000FEFFFF0300000000E0FFFF0F000000E0FFFF0300000000E0FFFF010000000092
:20626000FFFF0700000000F0FF3F0000000000FCFF0700000000F0FF0F0000000000F0FFFC
:206280000F00000000F0FF070000000000E0FF0F00000000F8FF030000000000C0FF1F0033
:2062A000000000F8FF01000000000080FF1F00000000F8FF00000000000000FF1F00000033
:2062C00000F87F00000000000000FE1F00000000F83F00000000000000FE3F00000000F8BE
:2062E0003F00000000000000FC3F00000000FC1F00000000000000FC3F00000000FC1F00B3
:20630000000000000000F83F00000000FC1F00000000000000FC3F00000000FC3F000000B5
:2063200000000000FC3F00000000FC3F00000000000000FC3F00000000F83F000000000075
:206340000000FE3F00000000F87F00000000000000FF1F00000000F8FF00000000000080F4
:20636000FF1F00000000F8FF010000000000C0FF1F00000000F8FF030000000000E0FF1F31
:2063800000000000F0FF0F0000000000F0FF0F00000000F0FF3F0000000000FCFF0F0000C9
:2063A0000000E0FFFF0100000080FFFF0700000000E0FFFF1F000000F8FFFF07000000007F
:2063C000C0FFFFFF3F00E0FFFFFF030000000080FFFFFFFFFFFFFFFFFF010000000000FF6A
:2063E000FFFFFFFFFFFFFFFF000000000000FEFFFFFFFFFFFFFFFF000000000000FCFFFFB5
:20640000FFFFFFFFFF3F000000000000F8FFFFFFFFFFFFFF1F000000000000E0FFFFFFFF56
:20642000FFFFFF0F000000000000C0FFFFFFFFFFFFFF0300000000000000FFFFFFFFFFFF9A
:20644000FF0000000000000000FCFFFFFFFFFF1F0000000000000000E0FFFFFFFFFF030049
:206460000000000000000000FEFFFFFF3F0000000000000000000000FFFF7F000000000065
:206480000000000000000000000000000000000000000000000000000000000000000000FC
:2064A0000000000000000000000000000000000000000000000000000000000000300000AC
:2064C000CC344000684A81992202005A008AFFFFFFFFFF7F500600F5FF62D4F000000000BE
:2064E0000065000800000020C4000000B01F0008C4650008C4000020DC0E0000C01F00088E
:20650000006CDC020000000000000000010203040607080900000000000000000000000009
:2065200000000000000000000000000000000000000000000000000000000000000000005B
:2065400000000000000000000000000000000000000000000000000000000000000000003B
:20656000000000000000000000000000040100000000000000000000CDAB1032000000005C
:206580000000000000000000000000000000000000000000000000000000000000000000FB
:2065A0000000000000000000000000000000000000000000000000000000000000000000DB
:2065C00000000000FFFFFFFFFFFFFFFFFFFFFFFFFFFFFFFFFFFFFFFFFFFFFFFFFFFFFFFFD7
:2065E000FFFFFFFFFFFFFFFFFFFFFFFFFFFFFFFFFFFFFFFFFFFFFFFFFFFFFFFFFFFFFFFFBB
:20660000FFFFFFFFFFFFFFFFFFFFFFFFFFFFFFFFFFFFFFFFFFFFFFFFFFFFFFFFFFFFFFFF9A
:20662000FFFFFFFFFFFFFFFFFFFFFFFFFFFFFFFFFFFFFFFFFFFFFFFFFFFFFFFFFFFFFFFF7A
:20664000FFFFFFFFFFFFFFFFFFFFFFFFFFFFFFFFFFFFFFFFFFFFFFFFFFFFFFFFFFFFFFFF5A
:20760000AA000000390000000100000002000000030000000300000000000000000000007E
:207620000000000002000000000000005A0000000100000000000000FFFFFFFFFFFFFFFFF5
:20764000FFFFFFFFFFFFFFFFFFFFFFFFFFFFFFFFFFFFFFFFFFFFFFFFFFFFFFFFFFFFFFFF4A
:20766000FFFFFFFFFFFFFFFFFFFFFFFFFFFFFFFFFFFFFFFFFFFFFFFFFFFFFFFFFFFFFFFF2A
:20768000FFFFFFFFFFFFFFFFFFFFFFFFFFFFFFFFFFFFFFFFFFFFFFFFFFFFFFFFFFFFFFFF0A
:2076A000FFFFFFFFFFFFFFFFFFFFFFFFFFFFFFFFFFFFFFFFFFFFFFFFFFFFFFFFFFFFFFFFEA
:00000001FF
